{
  "_format": "hh-sol-artifact-1",
  "contractName": "GreenCandleToken",
  "sourceName": "contracts/GreenCandleToken.sol",
  "abi": [
    {
      "inputs": [
        {
          "internalType": "uint256",
          "name": "mintingAllowedAfter_",
          "type": "uint256"
        }
      ],
      "stateMutability": "nonpayable",
      "type": "constructor"
    },
    {
      "inputs": [],
      "name": "CheckpointUnorderedInsertion",
      "type": "error"
    },
    {
      "inputs": [],
      "name": "DegenMintCapExceeded",
      "type": "error"
    },
    {
      "inputs": [],
      "name": "ECDSAInvalidSignature",
      "type": "error"
    },
    {
      "inputs": [
        {
          "internalType": "uint256",
          "name": "length",
          "type": "uint256"
        }
      ],
      "name": "ECDSAInvalidSignatureLength",
      "type": "error"
    },
    {
      "inputs": [
        {
          "internalType": "bytes32",
          "name": "s",
          "type": "bytes32"
        }
      ],
      "name": "ECDSAInvalidSignatureS",
      "type": "error"
    },
    {
      "inputs": [
        {
          "internalType": "uint256",
          "name": "increasedSupply",
          "type": "uint256"
        },
        {
          "internalType": "uint256",
          "name": "cap",
          "type": "uint256"
        }
      ],
      "name": "ERC20ExceededSafeSupply",
      "type": "error"
    },
    {
      "inputs": [
        {
          "internalType": "address",
          "name": "spender",
          "type": "address"
        },
        {
          "internalType": "uint256",
          "name": "allowance",
          "type": "uint256"
        },
        {
          "internalType": "uint256",
          "name": "needed",
          "type": "uint256"
        }
      ],
      "name": "ERC20InsufficientAllowance",
      "type": "error"
    },
    {
      "inputs": [
        {
          "internalType": "address",
          "name": "sender",
          "type": "address"
        },
        {
          "internalType": "uint256",
          "name": "balance",
          "type": "uint256"
        },
        {
          "internalType": "uint256",
          "name": "needed",
          "type": "uint256"
        }
      ],
      "name": "ERC20InsufficientBalance",
      "type": "error"
    },
    {
      "inputs": [
        {
          "internalType": "address",
          "name": "approver",
          "type": "address"
        }
      ],
      "name": "ERC20InvalidApprover",
      "type": "error"
    },
    {
      "inputs": [
        {
          "internalType": "address",
          "name": "receiver",
          "type": "address"
        }
      ],
      "name": "ERC20InvalidReceiver",
      "type": "error"
    },
    {
      "inputs": [
        {
          "internalType": "address",
          "name": "sender",
          "type": "address"
        }
      ],
      "name": "ERC20InvalidSender",
      "type": "error"
    },
    {
      "inputs": [
        {
          "internalType": "address",
          "name": "spender",
          "type": "address"
        }
      ],
      "name": "ERC20InvalidSpender",
      "type": "error"
    },
    {
      "inputs": [
        {
          "internalType": "uint256",
          "name": "deadline",
          "type": "uint256"
        }
      ],
      "name": "ERC2612ExpiredSignature",
      "type": "error"
    },
    {
      "inputs": [
        {
          "internalType": "address",
          "name": "signer",
          "type": "address"
        },
        {
          "internalType": "address",
          "name": "owner",
          "type": "address"
        }
      ],
      "name": "ERC2612InvalidSigner",
      "type": "error"
    },
    {
      "inputs": [
        {
          "internalType": "uint256",
          "name": "timepoint",
          "type": "uint256"
        },
        {
          "internalType": "uint48",
          "name": "clock",
          "type": "uint48"
        }
      ],
      "name": "ERC5805FutureLookup",
      "type": "error"
    },
    {
      "inputs": [],
      "name": "ERC6372InconsistentClock",
      "type": "error"
    },
    {
      "inputs": [],
      "name": "EnforcedPause",
      "type": "error"
    },
    {
      "inputs": [],
      "name": "ExpectedPause",
      "type": "error"
    },
    {
      "inputs": [
        {
          "internalType": "address",
          "name": "account",
          "type": "address"
        },
        {
          "internalType": "uint256",
          "name": "currentNonce",
          "type": "uint256"
        }
      ],
      "name": "InvalidAccountNonce",
      "type": "error"
    },
    {
      "inputs": [],
      "name": "InvalidShortString",
      "type": "error"
    },
    {
      "inputs": [
        {
          "internalType": "uint256",
          "name": "blockTimestamp",
          "type": "uint256"
        },
        {
          "internalType": "uint256",
          "name": "mintingAllowedAfter",
          "type": "uint256"
        }
      ],
      "name": "MintAllowedAfterDeployOnly",
      "type": "error"
    },
    {
      "inputs": [],
      "name": "MintToZeroAddressBlocked",
      "type": "error"
    },
    {
      "inputs": [],
      "name": "MintingDateNotReached",
      "type": "error"
    },
    {
      "inputs": [
        {
          "internalType": "address",
          "name": "owner",
          "type": "address"
        }
      ],
      "name": "OwnableInvalidOwner",
      "type": "error"
    },
    {
      "inputs": [
        {
          "internalType": "address",
          "name": "account",
          "type": "address"
        }
      ],
      "name": "OwnableUnauthorizedAccount",
      "type": "error"
    },
    {
      "inputs": [
        {
          "internalType": "uint8",
          "name": "bits",
          "type": "uint8"
        },
        {
          "internalType": "uint256",
          "name": "value",
          "type": "uint256"
        }
      ],
      "name": "SafeCastOverflowedUintDowncast",
      "type": "error"
    },
    {
      "inputs": [
        {
          "internalType": "string",
          "name": "str",
          "type": "string"
        }
      ],
      "name": "StringTooLong",
      "type": "error"
    },
    {
      "inputs": [
        {
          "internalType": "uint256",
          "name": "expiry",
          "type": "uint256"
        }
      ],
      "name": "VotesExpiredSignature",
      "type": "error"
    },
    {
      "anonymous": false,
      "inputs": [
        {
          "indexed": true,
          "internalType": "address",
          "name": "owner",
          "type": "address"
        },
        {
          "indexed": true,
          "internalType": "address",
          "name": "spender",
          "type": "address"
        },
        {
          "indexed": false,
          "internalType": "uint256",
          "name": "value",
          "type": "uint256"
        }
      ],
      "name": "Approval",
      "type": "event"
    },
    {
      "anonymous": false,
      "inputs": [
        {
          "indexed": true,
          "internalType": "address",
          "name": "delegator",
          "type": "address"
        },
        {
          "indexed": true,
          "internalType": "address",
          "name": "fromDelegate",
          "type": "address"
        },
        {
          "indexed": true,
          "internalType": "address",
          "name": "toDelegate",
          "type": "address"
        }
      ],
      "name": "DelegateChanged",
      "type": "event"
    },
    {
      "anonymous": false,
      "inputs": [
        {
          "indexed": true,
          "internalType": "address",
          "name": "delegate",
          "type": "address"
        },
        {
          "indexed": false,
          "internalType": "uint256",
          "name": "previousVotes",
          "type": "uint256"
        },
        {
          "indexed": false,
          "internalType": "uint256",
          "name": "newVotes",
          "type": "uint256"
        }
      ],
      "name": "DelegateVotesChanged",
      "type": "event"
    },
    {
      "anonymous": false,
      "inputs": [],
      "name": "EIP712DomainChanged",
      "type": "event"
    },
    {
      "anonymous": false,
      "inputs": [
        {
          "indexed": true,
          "internalType": "address",
          "name": "previousOwner",
          "type": "address"
        },
        {
          "indexed": true,
          "internalType": "address",
          "name": "newOwner",
          "type": "address"
        }
      ],
      "name": "OwnershipTransferred",
      "type": "event"
    },
    {
      "anonymous": false,
      "inputs": [
        {
          "indexed": false,
          "internalType": "address",
          "name": "account",
          "type": "address"
        }
      ],
      "name": "Paused",
      "type": "event"
    },
    {
      "anonymous": false,
      "inputs": [
        {
          "indexed": true,
          "internalType": "address",
          "name": "from",
          "type": "address"
        },
        {
          "indexed": true,
          "internalType": "address",
          "name": "to",
          "type": "address"
        },
        {
          "indexed": false,
          "internalType": "uint256",
          "name": "value",
          "type": "uint256"
        }
      ],
      "name": "Transfer",
      "type": "event"
    },
    {
      "anonymous": false,
      "inputs": [
        {
          "indexed": false,
          "internalType": "address",
          "name": "account",
          "type": "address"
        }
      ],
      "name": "Unpaused",
      "type": "event"
    },
    {
      "inputs": [],
      "name": "CLOCK_MODE",
      "outputs": [
        {
          "internalType": "string",
          "name": "",
          "type": "string"
        }
      ],
      "stateMutability": "view",
      "type": "function"
    },
    {
      "inputs": [],
      "name": "DOMAIN_SEPARATOR",
      "outputs": [
        {
          "internalType": "bytes32",
          "name": "",
          "type": "bytes32"
        }
      ],
      "stateMutability": "view",
      "type": "function"
    },
    {
      "inputs": [],
      "name": "MINIMUM_TIME_BETWEEN_MINTS",
      "outputs": [
        {
          "internalType": "uint32",
          "name": "",
          "type": "uint32"
        }
      ],
      "stateMutability": "view",
      "type": "function"
    },
    {
      "inputs": [],
      "name": "MINT_CAP",
      "outputs": [
        {
          "internalType": "uint8",
          "name": "",
          "type": "uint8"
        }
      ],
      "stateMutability": "view",
      "type": "function"
    },
    {
      "inputs": [],
      "name": "TOKEN_INITIAL_SUPPLY",
      "outputs": [
        {
          "internalType": "uint256",
          "name": "",
          "type": "uint256"
        }
      ],
      "stateMutability": "view",
      "type": "function"
    },
    {
      "inputs": [],
      "name": "TOKEN_NAME",
      "outputs": [
        {
          "internalType": "string",
          "name": "",
          "type": "string"
        }
      ],
      "stateMutability": "view",
      "type": "function"
    },
    {
      "inputs": [],
      "name": "TOKEN_SYMBOL",
      "outputs": [
        {
          "internalType": "string",
          "name": "",
          "type": "string"
        }
      ],
      "stateMutability": "view",
      "type": "function"
    },
    {
      "inputs": [
        {
          "internalType": "address",
          "name": "owner",
          "type": "address"
        },
        {
          "internalType": "address",
          "name": "spender",
          "type": "address"
        }
      ],
      "name": "allowance",
      "outputs": [
        {
          "internalType": "uint256",
          "name": "",
          "type": "uint256"
        }
      ],
      "stateMutability": "view",
      "type": "function"
    },
    {
      "inputs": [
        {
          "internalType": "address",
          "name": "spender",
          "type": "address"
        },
        {
          "internalType": "uint256",
          "name": "value",
          "type": "uint256"
        }
      ],
      "name": "approve",
      "outputs": [
        {
          "internalType": "bool",
          "name": "",
          "type": "bool"
        }
      ],
      "stateMutability": "nonpayable",
      "type": "function"
    },
    {
      "inputs": [
        {
          "internalType": "address",
          "name": "account",
          "type": "address"
        }
      ],
      "name": "balanceOf",
      "outputs": [
        {
          "internalType": "uint256",
          "name": "",
          "type": "uint256"
        }
      ],
      "stateMutability": "view",
      "type": "function"
    },
    {
      "inputs": [
        {
          "internalType": "uint256",
          "name": "value",
          "type": "uint256"
        }
      ],
      "name": "burn",
      "outputs": [],
      "stateMutability": "nonpayable",
      "type": "function"
    },
    {
      "inputs": [
        {
          "internalType": "address",
          "name": "account",
          "type": "address"
        },
        {
          "internalType": "uint256",
          "name": "value",
          "type": "uint256"
        }
      ],
      "name": "burnFrom",
      "outputs": [],
      "stateMutability": "nonpayable",
      "type": "function"
    },
    {
      "inputs": [
        {
          "internalType": "address",
          "name": "account",
          "type": "address"
        },
        {
          "internalType": "uint32",
          "name": "pos",
          "type": "uint32"
        }
      ],
      "name": "checkpoints",
      "outputs": [
        {
          "components": [
            {
              "internalType": "uint48",
              "name": "_key",
              "type": "uint48"
            },
            {
              "internalType": "uint208",
              "name": "_value",
              "type": "uint208"
            }
          ],
          "internalType": "struct Checkpoints.Checkpoint208",
          "name": "",
          "type": "tuple"
        }
      ],
      "stateMutability": "view",
      "type": "function"
    },
    {
      "inputs": [],
      "name": "clock",
      "outputs": [
        {
          "internalType": "uint48",
          "name": "",
          "type": "uint48"
        }
      ],
      "stateMutability": "view",
      "type": "function"
    },
    {
      "inputs": [],
      "name": "decimals",
      "outputs": [
        {
          "internalType": "uint8",
          "name": "",
          "type": "uint8"
        }
      ],
      "stateMutability": "view",
      "type": "function"
    },
    {
      "inputs": [
        {
          "internalType": "address",
          "name": "delegatee",
          "type": "address"
        }
      ],
      "name": "delegate",
      "outputs": [],
      "stateMutability": "nonpayable",
      "type": "function"
    },
    {
      "inputs": [
        {
          "internalType": "address",
          "name": "delegatee",
          "type": "address"
        },
        {
          "internalType": "uint256",
          "name": "nonce",
          "type": "uint256"
        },
        {
          "internalType": "uint256",
          "name": "expiry",
          "type": "uint256"
        },
        {
          "internalType": "uint8",
          "name": "v",
          "type": "uint8"
        },
        {
          "internalType": "bytes32",
          "name": "r",
          "type": "bytes32"
        },
        {
          "internalType": "bytes32",
          "name": "s",
          "type": "bytes32"
        }
      ],
      "name": "delegateBySig",
      "outputs": [],
      "stateMutability": "nonpayable",
      "type": "function"
    },
    {
      "inputs": [
        {
          "internalType": "address",
          "name": "account",
          "type": "address"
        }
      ],
      "name": "delegates",
      "outputs": [
        {
          "internalType": "address",
          "name": "",
          "type": "address"
        }
      ],
      "stateMutability": "view",
      "type": "function"
    },
    {
      "inputs": [],
      "name": "eip712Domain",
      "outputs": [
        {
          "internalType": "bytes1",
          "name": "fields",
          "type": "bytes1"
        },
        {
          "internalType": "string",
          "name": "name",
          "type": "string"
        },
        {
          "internalType": "string",
          "name": "version",
          "type": "string"
        },
        {
          "internalType": "uint256",
          "name": "chainId",
          "type": "uint256"
        },
        {
          "internalType": "address",
          "name": "verifyingContract",
          "type": "address"
        },
        {
          "internalType": "bytes32",
          "name": "salt",
          "type": "bytes32"
        },
        {
          "internalType": "uint256[]",
          "name": "extensions",
          "type": "uint256[]"
        }
      ],
      "stateMutability": "view",
      "type": "function"
    },
    {
      "inputs": [
        {
          "internalType": "uint256",
          "name": "timepoint",
          "type": "uint256"
        }
      ],
      "name": "getPastTotalSupply",
      "outputs": [
        {
          "internalType": "uint256",
          "name": "",
          "type": "uint256"
        }
      ],
      "stateMutability": "view",
      "type": "function"
    },
    {
      "inputs": [
        {
          "internalType": "address",
          "name": "account",
          "type": "address"
        },
        {
          "internalType": "uint256",
          "name": "timepoint",
          "type": "uint256"
        }
      ],
      "name": "getPastVotes",
      "outputs": [
        {
          "internalType": "uint256",
          "name": "",
          "type": "uint256"
        }
      ],
      "stateMutability": "view",
      "type": "function"
    },
    {
      "inputs": [
        {
          "internalType": "address",
          "name": "account",
          "type": "address"
        }
      ],
      "name": "getVotes",
      "outputs": [
        {
          "internalType": "uint256",
          "name": "",
          "type": "uint256"
        }
      ],
      "stateMutability": "view",
      "type": "function"
    },
    {
      "inputs": [
        {
          "internalType": "address",
          "name": "to",
          "type": "address"
        },
        {
          "internalType": "uint96",
          "name": "amount",
          "type": "uint96"
        }
      ],
      "name": "mint",
      "outputs": [],
      "stateMutability": "nonpayable",
      "type": "function"
    },
    {
      "inputs": [],
      "name": "mintingAllowedAfter",
      "outputs": [
        {
          "internalType": "uint256",
          "name": "",
          "type": "uint256"
        }
      ],
      "stateMutability": "view",
      "type": "function"
    },
    {
      "inputs": [],
      "name": "name",
      "outputs": [
        {
          "internalType": "string",
          "name": "",
          "type": "string"
        }
      ],
      "stateMutability": "view",
      "type": "function"
    },
    {
      "inputs": [
        {
          "internalType": "address",
          "name": "owner",
          "type": "address"
        }
      ],
      "name": "nonces",
      "outputs": [
        {
          "internalType": "uint256",
          "name": "",
          "type": "uint256"
        }
      ],
      "stateMutability": "view",
      "type": "function"
    },
    {
      "inputs": [
        {
          "internalType": "address",
          "name": "account",
          "type": "address"
        }
      ],
      "name": "numCheckpoints",
      "outputs": [
        {
          "internalType": "uint32",
          "name": "",
          "type": "uint32"
        }
      ],
      "stateMutability": "view",
      "type": "function"
    },
    {
      "inputs": [],
      "name": "owner",
      "outputs": [
        {
          "internalType": "address",
          "name": "",
          "type": "address"
        }
      ],
      "stateMutability": "view",
      "type": "function"
    },
    {
      "inputs": [],
      "name": "pause",
      "outputs": [],
      "stateMutability": "nonpayable",
      "type": "function"
    },
    {
      "inputs": [],
      "name": "paused",
      "outputs": [
        {
          "internalType": "bool",
          "name": "",
          "type": "bool"
        }
      ],
      "stateMutability": "view",
      "type": "function"
    },
    {
      "inputs": [
        {
          "internalType": "address",
          "name": "owner",
          "type": "address"
        },
        {
          "internalType": "address",
          "name": "spender",
          "type": "address"
        },
        {
          "internalType": "uint256",
          "name": "value",
          "type": "uint256"
        },
        {
          "internalType": "uint256",
          "name": "deadline",
          "type": "uint256"
        },
        {
          "internalType": "uint8",
          "name": "v",
          "type": "uint8"
        },
        {
          "internalType": "bytes32",
          "name": "r",
          "type": "bytes32"
        },
        {
          "internalType": "bytes32",
          "name": "s",
          "type": "bytes32"
        }
      ],
      "name": "permit",
      "outputs": [],
      "stateMutability": "nonpayable",
      "type": "function"
    },
    {
      "inputs": [],
      "name": "renounceOwnership",
      "outputs": [],
      "stateMutability": "nonpayable",
      "type": "function"
    },
    {
      "inputs": [],
      "name": "symbol",
      "outputs": [
        {
          "internalType": "string",
          "name": "",
          "type": "string"
        }
      ],
      "stateMutability": "view",
      "type": "function"
    },
    {
      "inputs": [],
      "name": "totalSupply",
      "outputs": [
        {
          "internalType": "uint256",
          "name": "",
          "type": "uint256"
        }
      ],
      "stateMutability": "view",
      "type": "function"
    },
    {
      "inputs": [
        {
          "internalType": "address",
          "name": "to",
          "type": "address"
        },
        {
          "internalType": "uint256",
          "name": "value",
          "type": "uint256"
        }
      ],
      "name": "transfer",
      "outputs": [
        {
          "internalType": "bool",
          "name": "",
          "type": "bool"
        }
      ],
      "stateMutability": "nonpayable",
      "type": "function"
    },
    {
      "inputs": [
        {
          "internalType": "address",
          "name": "from",
          "type": "address"
        },
        {
          "internalType": "address",
          "name": "to",
          "type": "address"
        },
        {
          "internalType": "uint256",
          "name": "value",
          "type": "uint256"
        }
      ],
      "name": "transferFrom",
      "outputs": [
        {
          "internalType": "bool",
          "name": "",
          "type": "bool"
        }
      ],
      "stateMutability": "nonpayable",
      "type": "function"
    },
    {
      "inputs": [
        {
          "internalType": "address",
          "name": "newOwner",
          "type": "address"
        }
      ],
      "name": "transferOwnership",
      "outputs": [],
      "stateMutability": "nonpayable",
      "type": "function"
    },
    {
      "inputs": [],
      "name": "unpause",
      "outputs": [],
      "stateMutability": "nonpayable",
      "type": "function"
    }
  ],
  "bytecode": "0x6101606040523480156200001257600080fd5b5060405162003b9e38038062003b9e833981016040819052620000359162000a16565b336040518060400160405280601081526020016f23b932b2b721b0b7323632aa37b5b2b760811b81525080604051806040016040528060018152602001603160f81b8152506040518060400160405280601081526020016f23b932b2b721b0b7323632aa37b5b2b760811b81525060405180604001604052806002815260200161474360f01b8152508160039081620000cf919062000ad4565b506004620000de828262000ad4565b50506005805460ff1916905550620000f88260066200023b565b61012052620001098160076200023b565b61014052815160208084019190912060e052815190820120610100524660a0526200019760e05161010051604080517f8b73c3c69bb8fe3d512ecc4cf759cc79239f7b179b0ffacaa9a75d522b39400f60208201529081019290925260608201524660808201523060a082015260009060c00160405160208183030381529060405280519060200120905090565b60805250503060c052506001600160a01b038116620001d157604051631e4fbdf760e01b8152600060048201526024015b60405180910390fd5b620001dc8162000274565b50428110156200020957604051630a4fa5a960e41b815242600482015260248101829052604401620001c8565b62000232336200021c6012600a62000cb3565b6200022c90633b9aca0062000cc4565b620002c6565b600d5562000dcc565b60006020835110156200025b57620002538362000304565b90506200026e565b8162000268848262000ad4565b5060ff90505b92915050565b600c80546001600160a01b038381166001600160a01b0319831681179093556040519116919082907f8be0079c531659141344cd1fd0a4f28419497f9722a3daafe3b4186f6b6457e090600090a35050565b6001600160a01b038216620002f25760405163ec442f0560e01b815260006004820152602401620001c8565b620003006000838362000347565b5050565b600080829050601f8151111562000332578260405163305a27a960e01b8152600401620001c8919062000cde565b80516200033f8262000d2e565b179392505050565b6200035483838362000359565b505050565b62000366838383620003c8565b6001600160a01b038316620003bb5760006200038160025490565b90506001600160d01b0380821115620003b857604051630e58ae9360e11b81526004810183905260248101829052604401620001c8565b50505b62000354838383620003df565b620003d262000477565b620003548383836200049e565b6001600160a01b038316620004145762000411600b62000ecf620005d160201b176200040b84620005e6565b62000620565b50505b6001600160a01b038216620004435762000440600b62000edb6200065d60201b176200040b84620005e6565b50505b6001600160a01b0383811660009081526009602052604080822054858416835291205462000354929182169116836200066b565b60055460ff16156200049c5760405163d93c066560e01b815260040160405180910390fd5b565b6001600160a01b038316620004cd578060026000828254620004c1919062000d53565b90915550620005419050565b6001600160a01b03831660009081526020819052604090205481811015620005225760405163391434e360e21b81526001600160a01b03851660048201526024810182905260448101839052606401620001c8565b6001600160a01b03841660009081526020819052604090209082900390555b6001600160a01b0382166200055f576002805482900390556200057e565b6001600160a01b03821660009081526020819052604090208054820190555b816001600160a01b0316836001600160a01b03167fddf252ad1be2c89b69c2b068fc378daa952ba7f163c4a11628f55a4df523b3ef83604051620005c491815260200190565b60405180910390a3505050565b6000620005df828462000d69565b9392505050565b60006001600160d01b038211156200061c576040516306dfcc6560e41b815260d0600482015260248101839052604401620001c8565b5090565b6000806200065062000631620007d2565b620006476200064088620007e3565b868860201c565b87919062000832565b915091505b935093915050565b6000620005df828462000d93565b816001600160a01b0316836001600160a01b0316141580156200068e5750600081115b1562000354576001600160a01b0383161562000731576001600160a01b0383166000908152600a6020908152604082208291620006dc91906200065d901b62000edb176200040b86620005e6565b6001600160d01b031691506001600160d01b03169150846001600160a01b031660008051602062003b7e833981519152838360405162000726929190918252602082015260400190565b60405180910390a250505b6001600160a01b0382161562000354576001600160a01b0382166000908152600a6020908152604082208291620007799190620005d1901b62000ecf176200040b86620005e6565b6001600160d01b031691506001600160d01b03169150836001600160a01b031660008051602062003b7e8339815191528383604051620007c3929190918252602082015260400190565b60405180910390a25050505050565b6000620007de62000842565b905090565b8054600090801562000829576200080f836200080160018462000db6565b600091825260209091200190565b54660100000000000090046001600160d01b0316620005df565b60009392505050565b600080620006508585856200084f565b6000620007de43620009e1565b8254600090819080156200098257600062000871876200080160018562000db6565b60408051808201909152905465ffffffffffff80821680845266010000000000009092046001600160d01b031660208401529192509087161015620008c957604051632520601d60e01b815260040160405180910390fd5b805165ffffffffffff8088169116036200091d5784620008f0886200080160018662000db6565b80546001600160d01b039290921666010000000000000265ffffffffffff90921691909117905562000971565b6040805180820190915265ffffffffffff80881682526001600160d01b0380881660208085019182528b54600181018d5560008d815291909120945191519092166601000000000000029216919091179101555b602001519250839150620006559050565b50506040805180820190915265ffffffffffff80851682526001600160d01b0380851660208085019182528854600181018a5560008a815291822095519251909316660100000000000002919093161792019190915590508162000655565b600065ffffffffffff8211156200061c576040516306dfcc6560e41b81526030600482015260248101839052604401620001c8565b60006020828403121562000a2957600080fd5b5051919050565b634e487b7160e01b600052604160045260246000fd5b600181811c9082168062000a5b57607f821691505b60208210810362000a7c57634e487b7160e01b600052602260045260246000fd5b50919050565b601f8211156200035457600081815260208120601f850160051c8101602086101562000aab5750805b601f850160051c820191505b8181101562000acc5782815560010162000ab7565b505050505050565b81516001600160401b0381111562000af05762000af062000a30565b62000b088162000b01845462000a46565b8462000a82565b602080601f83116001811462000b40576000841562000b275750858301515b600019600386901b1c1916600185901b17855562000acc565b600085815260208120601f198616915b8281101562000b715788860151825594840194600190910190840162000b50565b508582101562000b905787850151600019600388901b60f8161c191681555b5050505050600190811b01905550565b634e487b7160e01b600052601160045260246000fd5b600181815b8085111562000bf757816000190482111562000bdb5762000bdb62000ba0565b8085161562000be957918102915b93841c939080029062000bbb565b509250929050565b60008262000c10575060016200026e565b8162000c1f575060006200026e565b816001811462000c38576002811462000c435762000c63565b60019150506200026e565b60ff84111562000c575762000c5762000ba0565b50506001821b6200026e565b5060208310610133831016604e8410600b841016171562000c88575081810a6200026e565b62000c94838362000bb6565b806000190482111562000cab5762000cab62000ba0565b029392505050565b6000620005df60ff84168362000bff565b80820281158282048414176200026e576200026e62000ba0565b600060208083528351808285015260005b8181101562000d0d5785810183015185820160400152820162000cef565b506000604082860101526040601f19601f8301168501019250505092915050565b8051602080830151919081101562000a7c5760001960209190910360031b1b16919050565b808201808211156200026e576200026e62000ba0565b6001600160d01b0381811683821601908082111562000d8c5762000d8c62000ba0565b5092915050565b6001600160d01b0382811682821603908082111562000d8c5762000d8c62000ba0565b818103818111156200026e576200026e62000ba0565b60805160a05160c05160e051610100516101205161014051612d5762000e2760003960006116510152600061162401526000611209015260006111e10152600061113c01526000611166015260006111900152612d576000f3fe608060405234801561001057600080fd5b50600436106102925760003560e01c80636fcfff451161016057806391ddadf4116100d8578063c3cda5201161008c578063dd62ed3e11610071578063dd62ed3e146105d3578063f1127ed814610619578063f2fde38b1461066b57600080fd5b8063c3cda520146105ad578063d505accf146105c057600080fd5b806398f1312e116100bd57806398f1312e1461057f5780639ab24eb014610587578063a9059cbb1461059a57600080fd5b806391ddadf41461055857806395d89b411461057757600080fd5b80637ecebe001161012f57806384b0196e1161011457806384b0196e1461050c5780638da5cb5b146105275780638e539e8c1461054557600080fd5b80637ecebe00146104f15780638456cb591461050457600080fd5b80636fcfff451461048d57806370a08231146104a0578063715018a6146104d657806379cc6790146104de57600080fd5b8063313ce5671161020e57806342966c68116101c2578063587cde1e116101a7578063587cde1e146104115780635c19a95c1461046f5780635c975abb1461048257600080fd5b806342966c68146103f65780634bf5d7e91461040957600080fd5b806336c20dcf116101f357806336c20dcf146103d05780633a46b1a8146103db5780633f4ba83a146103ee57600080fd5b8063313ce567146103b35780633644e515146103c857600080fd5b8063188214001161026557806323b872dd1161024a57806323b872dd1461035b5780632a9053181461036e57806330b36cef146103aa57600080fd5b8063188214001461030a5780631b025a401461034657600080fd5b806306fdde0314610297578063095ea7b3146102b55780630d8c0205146102d857806318160ddd146102f8575b600080fd5b61029f61067e565b6040516102ac9190612815565b60405180910390f35b6102c86102c3366004612851565b610710565b60405190151581526020016102ac565b6102e36301e1338081565b60405163ffffffff90911681526020016102ac565b6002545b6040519081526020016102ac565b61029f6040518060400160405280601081526020017f477265656e43616e646c65546f6b656e0000000000000000000000000000000081525081565b61035961035436600461287b565b61072a565b005b6102c86103693660046128c3565b610850565b61029f6040518060400160405280600281526020017f474300000000000000000000000000000000000000000000000000000000000081525081565b6102fc600d5481565b60125b60405160ff90911681526020016102ac565b6102fc610874565b6102fc633b9aca0081565b6102fc6103e9366004612851565b610883565b610359610942565b6103596104043660046128ff565b610954565b61029f610961565b61044a61041f366004612918565b73ffffffffffffffffffffffffffffffffffffffff9081166000908152600960205260409020541690565b60405173ffffffffffffffffffffffffffffffffffffffff90911681526020016102ac565b61035961047d366004612918565b6109f2565b60055460ff166102c8565b6102e361049b366004612918565b6109fd565b6102fc6104ae366004612918565b73ffffffffffffffffffffffffffffffffffffffff1660009081526020819052604090205490565b610359610a08565b6103596104ec366004612851565b610a1a565b6102fc6104ff366004612918565b610a2f565b610359610a3a565b610514610a4a565b6040516102ac9796959493929190612933565b600c5473ffffffffffffffffffffffffffffffffffffffff1661044a565b6102fc6105533660046128ff565b610aac565b610560610b42565b60405165ffffffffffff90911681526020016102ac565b61029f610b4c565b6103b6600181565b6102fc610595366004612918565b610b5b565b6102c86105a8366004612851565b610bab565b6103596105bb366004612a03565b610bb9565b6103596105ce366004612a5b565b610c9c565b6102fc6105e1366004612ac5565b73ffffffffffffffffffffffffffffffffffffffff918216600090815260016020908152604080832093909416825291909152205490565b61062c610627366004612af8565b610e49565b60408051825165ffffffffffff16815260209283015179ffffffffffffffffffffffffffffffffffffffffffffffffffff1692810192909252016102ac565b610359610679366004612918565b610e6e565b60606003805461068d90612b2d565b80601f01602080910402602001604051908101604052809291908181526020018280546106b990612b2d565b80156107065780601f106106db57610100808354040283529160200191610706565b820191906000526020600020905b8154815290600101906020018083116106e957829003601f168201915b5050505050905090565b60003361071e818585610ee7565b60019150505b92915050565b610732610ef9565b600d5442101561076e576040517f5515cbd200000000000000000000000000000000000000000000000000000000815260040160405180910390fd5b73ffffffffffffffffffffffffffffffffffffffff82166107bb576040517ffa7b55d600000000000000000000000000000000000000000000000000000000815260040160405180910390fd5b6107c96301e1338042612baf565b600d55606460016107d960025490565b6107e39190612bc2565b6107ed9190612c08565b816bffffffffffffffffffffffff161115610834576040517fb7a7842300000000000000000000000000000000000000000000000000000000815260040160405180910390fd5b61084c82826bffffffffffffffffffffffff16610f4c565b5050565b60003361085e858285610fa8565b610869858585611077565b506001949350505050565b600061087e611122565b905090565b60008061088e610b42565b90508065ffffffffffff1683106108e7576040517fecd3f81e0000000000000000000000000000000000000000000000000000000081526004810184905265ffffffffffff821660248201526044015b60405180910390fd5b61091e6108f38461125a565b73ffffffffffffffffffffffffffffffffffffffff86166000908152600a60205260409020906112aa565b79ffffffffffffffffffffffffffffffffffffffffffffffffffff16949350505050565b61094a610ef9565b610952611376565b565b61095e33826113f3565b50565b606061096b61144f565b65ffffffffffff1661097b610b42565b65ffffffffffff16146109ba576040517f6ff0714000000000000000000000000000000000000000000000000000000000815260040160405180910390fd5b5060408051808201909152601d81527f6d6f64653d626c6f636b6e756d6265722666726f6d3d64656661756c74000000602082015290565b3361084c818361145a565b6000610724826114f1565b610a10610ef9565b6109526000611520565b610a25823383610fa8565b61084c82826113f3565b600061072482611597565b610a42610ef9565b6109526115c2565b600060608060008060006060610a5e61161d565b610a6661164a565b604080516000808252602082019092527f0f000000000000000000000000000000000000000000000000000000000000009b939a50919850469750309650945092509050565b600080610ab7610b42565b90508065ffffffffffff168310610b0b576040517fecd3f81e0000000000000000000000000000000000000000000000000000000081526004810184905265ffffffffffff821660248201526044016108de565b610b1f610b178461125a565b600b906112aa565b79ffffffffffffffffffffffffffffffffffffffffffffffffffff169392505050565b600061087e61144f565b60606004805461068d90612b2d565b73ffffffffffffffffffffffffffffffffffffffff81166000908152600a60205260408120610b8990611677565b79ffffffffffffffffffffffffffffffffffffffffffffffffffff1692915050565b60003361071e818585611077565b83421115610bf6576040517f4683af0e000000000000000000000000000000000000000000000000000000008152600481018590526024016108de565b604080517fe48329057bfd03d55e49b547132e39cffd9c1820ad7b9d4c5307691425d15adf602082015273ffffffffffffffffffffffffffffffffffffffff8816918101919091526060810186905260808101859052600090610c7d90610c759060a001604051602081830303815290604052805190602001206116c6565b85858561170e565b9050610c89818761173c565b610c93818861145a565b50505050505050565b83421115610cd9576040517f62791302000000000000000000000000000000000000000000000000000000008152600481018590526024016108de565b60007f6e71edae12b1b97f4d1f60370fef10105fa2faae0126114a169c64845d6126c9888888610d338c73ffffffffffffffffffffffffffffffffffffffff16600090815260086020526040902080546001810190915590565b60408051602081019690965273ffffffffffffffffffffffffffffffffffffffff94851690860152929091166060840152608083015260a082015260c0810186905260e0016040516020818303038152906040528051906020012090506000610d9b826116c6565b90506000610dab8287878761170e565b90508973ffffffffffffffffffffffffffffffffffffffff168173ffffffffffffffffffffffffffffffffffffffff1614610e32576040517f4b800e4600000000000000000000000000000000000000000000000000000000815273ffffffffffffffffffffffffffffffffffffffff80831660048301528b1660248201526044016108de565b610e3d8a8a8a610ee7565b50505050505050505050565b6040805180820190915260008082526020820152610e6783836117c2565b9392505050565b610e76610ef9565b73ffffffffffffffffffffffffffffffffffffffff8116610ec6576040517f1e4fbdf7000000000000000000000000000000000000000000000000000000008152600060048201526024016108de565b61095e81611520565b6000610e678284612c43565b6000610e678284612c7d565b610ef48383836001611805565b505050565b600c5473ffffffffffffffffffffffffffffffffffffffff163314610952576040517f118cdaa70000000000000000000000000000000000000000000000000000000081523360048201526024016108de565b73ffffffffffffffffffffffffffffffffffffffff8216610f9c576040517fec442f05000000000000000000000000000000000000000000000000000000008152600060048201526024016108de565b61084c6000838361194d565b73ffffffffffffffffffffffffffffffffffffffff8381166000908152600160209081526040808320938616835292905220547fffffffffffffffffffffffffffffffffffffffffffffffffffffffffffffffff81146110715781811015611062576040517ffb8f41b200000000000000000000000000000000000000000000000000000000815273ffffffffffffffffffffffffffffffffffffffff8416600482015260248101829052604481018390526064016108de565b61107184848484036000611805565b50505050565b73ffffffffffffffffffffffffffffffffffffffff83166110c7576040517f96c6fd1e000000000000000000000000000000000000000000000000000000008152600060048201526024016108de565b73ffffffffffffffffffffffffffffffffffffffff8216611117576040517fec442f05000000000000000000000000000000000000000000000000000000008152600060048201526024016108de565b610ef483838361194d565b60003073ffffffffffffffffffffffffffffffffffffffff7f00000000000000000000000000000000000000000000000000000000000000001614801561118857507f000000000000000000000000000000000000000000000000000000000000000046145b156111b257507f000000000000000000000000000000000000000000000000000000000000000090565b61087e604080517f8b73c3c69bb8fe3d512ecc4cf759cc79239f7b179b0ffacaa9a75d522b39400f60208201527f0000000000000000000000000000000000000000000000000000000000000000918101919091527f000000000000000000000000000000000000000000000000000000000000000060608201524660808201523060a082015260009060c00160405160208183030381529060405280519060200120905090565b600065ffffffffffff8211156112a6576040517f6dfcc65000000000000000000000000000000000000000000000000000000000815260306004820152602481018390526044016108de565b5090565b8154600090818160058111156113095760006112c584611958565b6112cf9085612cb0565b60008881526020902090915081015465ffffffffffff90811690871610156112f957809150611307565b611304816001612baf565b92505b505b600061131787878585611a40565b905080156113685761133c8761132e600184612cb0565b600091825260209091200190565b546601000000000000900479ffffffffffffffffffffffffffffffffffffffffffffffffffff1661136b565b60005b979650505050505050565b61137e611aa2565b600580547fffffffffffffffffffffffffffffffffffffffffffffffffffffffffffffff001690557f5db9ee0a495bf2e6ff9c91a7834c1ba4fdd244a5e8aa4e537bd38aeae4b073aa335b60405173ffffffffffffffffffffffffffffffffffffffff909116815260200160405180910390a1565b73ffffffffffffffffffffffffffffffffffffffff8216611443576040517f96c6fd1e000000000000000000000000000000000000000000000000000000008152600060048201526024016108de565b61084c8260008361194d565b600061087e4361125a565b73ffffffffffffffffffffffffffffffffffffffff82811660008181526009602052604080822080548686167fffffffffffffffffffffffff0000000000000000000000000000000000000000821681179092559151919094169392849290917f3134e8a2e6d97e929a7e54011ea5485d7d196dd5f0ba4d4ef95803e8e3fc257f9190a4610ef481836114ec86611ade565b611b09565b73ffffffffffffffffffffffffffffffffffffffff81166000908152600a602052604081205461072490611d29565b600c805473ffffffffffffffffffffffffffffffffffffffff8381167fffffffffffffffffffffffff0000000000000000000000000000000000000000831681179093556040519116919082907f8be0079c531659141344cd1fd0a4f28419497f9722a3daafe3b4186f6b6457e090600090a35050565b73ffffffffffffffffffffffffffffffffffffffff8116600090815260086020526040812054610724565b6115ca611d73565b600580547fffffffffffffffffffffffffffffffffffffffffffffffffffffffffffffff001660011790557f62e78cea01bee320cd4e420270b5ea74000d11b0c9f74754ebdbfc544b05a2586113c93390565b606061087e7f00000000000000000000000000000000000000000000000000000000000000006006611db0565b606061087e7f00000000000000000000000000000000000000000000000000000000000000006007611db0565b805460009080156116bd576116918361132e600184612cb0565b546601000000000000900479ffffffffffffffffffffffffffffffffffffffffffffffffffff16610e67565b60009392505050565b60006107246116d3611122565b836040517f19010000000000000000000000000000000000000000000000000000000000008152600281019290925260228201526042902090565b60008060008061172088888888611e5b565b9250925092506117308282611f55565b50909695505050505050565b73ffffffffffffffffffffffffffffffffffffffff82166000908152600860205260409020805460018101909155818114610ef4576040517f752d88c000000000000000000000000000000000000000000000000000000000815273ffffffffffffffffffffffffffffffffffffffff84166004820152602481018290526044016108de565b604080518082019091526000808252602082015273ffffffffffffffffffffffffffffffffffffffff83166000908152600a60205260409020610e679083612059565b73ffffffffffffffffffffffffffffffffffffffff8416611855576040517fe602df05000000000000000000000000000000000000000000000000000000008152600060048201526024016108de565b73ffffffffffffffffffffffffffffffffffffffff83166118a5576040517f94280d62000000000000000000000000000000000000000000000000000000008152600060048201526024016108de565b73ffffffffffffffffffffffffffffffffffffffff80851660009081526001602090815260408083209387168352929052208290558015611071578273ffffffffffffffffffffffffffffffffffffffff168473ffffffffffffffffffffffffffffffffffffffff167f8c5be1e5ebec7d5bd14f71427d1e84f3dd0314c0f7b2291e5b200ac8c7c3b9258460405161193f91815260200190565b60405180910390a350505050565b610ef48383836120df565b60008160000361196a57506000919050565b600060016119778461217f565b901c6001901b9050600181848161199057611990612bd9565b048201901c905060018184816119a8576119a8612bd9565b048201901c905060018184816119c0576119c0612bd9565b048201901c905060018184816119d8576119d8612bd9565b048201901c905060018184816119f0576119f0612bd9565b048201901c90506001818481611a0857611a08612bd9565b048201901c90506001818481611a2057611a20612bd9565b048201901c9050610e6781828581611a3a57611a3a612bd9565b04612213565b60005b81831015611a9a576000611a578484612229565b60008781526020902090915065ffffffffffff86169082015465ffffffffffff161115611a8657809250611a94565b611a91816001612baf565b93505b50611a43565b509392505050565b60055460ff16610952576040517f8dfc202b00000000000000000000000000000000000000000000000000000000815260040160405180910390fd5b73ffffffffffffffffffffffffffffffffffffffff8116600090815260208190526040812054610724565b8173ffffffffffffffffffffffffffffffffffffffff168373ffffffffffffffffffffffffffffffffffffffff1614158015611b455750600081115b15610ef45773ffffffffffffffffffffffffffffffffffffffff831615611c3a5773ffffffffffffffffffffffffffffffffffffffff83166000908152600a602052604081208190611ba290610edb611b9d86612244565b6122a4565b79ffffffffffffffffffffffffffffffffffffffffffffffffffff16915079ffffffffffffffffffffffffffffffffffffffffffffffffffff1691508473ffffffffffffffffffffffffffffffffffffffff167fdec2bacdd2f05b59de34da9b523dff8be42e5e38e818c82fdb0bae774387a7248383604051611c2f929190918252602082015260400190565b60405180910390a250505b73ffffffffffffffffffffffffffffffffffffffff821615610ef45773ffffffffffffffffffffffffffffffffffffffff82166000908152600a602052604081208190611c8d90610ecf611b9d86612244565b79ffffffffffffffffffffffffffffffffffffffffffffffffffff16915079ffffffffffffffffffffffffffffffffffffffffffffffffffff1691508373ffffffffffffffffffffffffffffffffffffffff167fdec2bacdd2f05b59de34da9b523dff8be42e5e38e818c82fdb0bae774387a7248383604051611d1a929190918252602082015260400190565b60405180910390a25050505050565b600063ffffffff8211156112a6576040517f6dfcc65000000000000000000000000000000000000000000000000000000000815260206004820152602481018390526044016108de565b60055460ff1615610952576040517fd93c066500000000000000000000000000000000000000000000000000000000815260040160405180910390fd5b606060ff8314611dca57611dc3836122dd565b9050610724565b818054611dd690612b2d565b80601f0160208091040260200160405190810160405280929190818152602001828054611e0290612b2d565b8015611e4f5780601f10611e2457610100808354040283529160200191611e4f565b820191906000526020600020905b815481529060010190602001808311611e3257829003601f168201915b50505050509050610724565b600080807f7fffffffffffffffffffffffffffffff5d576e7357a4501ddfe92f46681b20a0841115611e965750600091506003905082611f4b565b604080516000808252602082018084528a905260ff891692820192909252606081018790526080810186905260019060a0016020604051602081039080840390855afa158015611eea573d6000803e3d6000fd5b50506040517fffffffffffffffffffffffffffffffffffffffffffffffffffffffffffffffe0015191505073ffffffffffffffffffffffffffffffffffffffff8116611f4157506000925060019150829050611f4b565b9250600091508190505b9450945094915050565b6000826003811115611f6957611f69612cc3565b03611f72575050565b6001826003811115611f8657611f86612cc3565b03611fbd576040517ff645eedf00000000000000000000000000000000000000000000000000000000815260040160405180910390fd5b6002826003811115611fd157611fd1612cc3565b0361200b576040517ffce698f7000000000000000000000000000000000000000000000000000000008152600481018290526024016108de565b600382600381111561201f5761201f612cc3565b0361084c576040517fd78bce0c000000000000000000000000000000000000000000000000000000008152600481018290526024016108de565b6040805180820190915260008082526020820152826000018263ffffffff168154811061208857612088612cf2565b60009182526020918290206040805180820190915291015465ffffffffffff811682526601000000000000900479ffffffffffffffffffffffffffffffffffffffffffffffffffff16918101919091529392505050565b6120ea83838361231c565b73ffffffffffffffffffffffffffffffffffffffff831661217457600061211060025490565b905079ffffffffffffffffffffffffffffffffffffffffffffffffffff80821115612171576040517f1cb15d2600000000000000000000000000000000000000000000000000000000815260048101839052602481018290526044016108de565b50505b610ef483838361232f565b600080608083901c1561219457608092831c92015b604083901c156121a657604092831c92015b602083901c156121b857602092831c92015b601083901c156121ca57601092831c92015b600883901c156121dc57600892831c92015b600483901c156121ee57600492831c92015b600283901c1561220057600292831c92015b600183901c156107245760010192915050565b60008183106122225781610e67565b5090919050565b60006122386002848418612c08565b610e6790848416612baf565b600079ffffffffffffffffffffffffffffffffffffffffffffffffffff8211156112a6576040517f6dfcc65000000000000000000000000000000000000000000000000000000000815260d06004820152602481018390526044016108de565b6000806122d06122b2610b42565b6122c86122be88611677565b868863ffffffff16565b8791906123cc565b915091505b935093915050565b606060006122ea836123da565b604080516020808252818301909252919250600091906020820181803683375050509182525060208101929092525090565b612324611d73565b610ef483838361241b565b73ffffffffffffffffffffffffffffffffffffffff831661235e5761235b600b610ecf611b9d84612244565b50505b73ffffffffffffffffffffffffffffffffffffffff821661238d5761238a600b610edb611b9d84612244565b50505b73ffffffffffffffffffffffffffffffffffffffff838116600090815260096020526040808220548584168352912054610ef492918216911683611b09565b6000806122d08585856125c6565b600060ff8216601f811115610724576040517fb3512b0c00000000000000000000000000000000000000000000000000000000815260040160405180910390fd5b73ffffffffffffffffffffffffffffffffffffffff83166124535780600260008282546124489190612baf565b909155506125059050565b73ffffffffffffffffffffffffffffffffffffffff8316600090815260208190526040902054818110156124d9576040517fe450d38c00000000000000000000000000000000000000000000000000000000815273ffffffffffffffffffffffffffffffffffffffff8516600482015260248101829052604481018390526064016108de565b73ffffffffffffffffffffffffffffffffffffffff841660009081526020819052604090209082900390555b73ffffffffffffffffffffffffffffffffffffffff821661252e5760028054829003905561255a565b73ffffffffffffffffffffffffffffffffffffffff821660009081526020819052604090208054820190555b8173ffffffffffffffffffffffffffffffffffffffff168373ffffffffffffffffffffffffffffffffffffffff167fddf252ad1be2c89b69c2b068fc378daa952ba7f163c4a11628f55a4df523b3ef836040516125b991815260200190565b60405180910390a3505050565b8254600090819080156127405760006125e48761132e600185612cb0565b60408051808201909152905465ffffffffffff808216808452660100000000000090920479ffffffffffffffffffffffffffffffffffffffffffffffffffff1660208401529192509087161015612667576040517f2520601d00000000000000000000000000000000000000000000000000000000815260040160405180910390fd5b805165ffffffffffff8088169116036126c9578461268a8861132e600186612cb0565b805479ffffffffffffffffffffffffffffffffffffffffffffffffffff9290921666010000000000000265ffffffffffff909216919091179055612730565b6040805180820190915265ffffffffffff808816825279ffffffffffffffffffffffffffffffffffffffffffffffffffff80881660208085019182528b54600181018d5560008d815291909120945191519092166601000000000000029216919091179101555b6020015192508391506122d59050565b50506040805180820190915265ffffffffffff808516825279ffffffffffffffffffffffffffffffffffffffffffffffffffff80851660208085019182528854600181018a5560008a81529182209551925190931666010000000000000291909316179201919091559050816122d5565b6000815180845260005b818110156127d7576020818501810151868301820152016127bb565b5060006020828601015260207fffffffffffffffffffffffffffffffffffffffffffffffffffffffffffffffe0601f83011685010191505092915050565b602081526000610e6760208301846127b1565b803573ffffffffffffffffffffffffffffffffffffffff8116811461284c57600080fd5b919050565b6000806040838503121561286457600080fd5b61286d83612828565b946020939093013593505050565b6000806040838503121561288e57600080fd5b61289783612828565b915060208301356bffffffffffffffffffffffff811681146128b857600080fd5b809150509250929050565b6000806000606084860312156128d857600080fd5b6128e184612828565b92506128ef60208501612828565b9150604084013590509250925092565b60006020828403121561291157600080fd5b5035919050565b60006020828403121561292a57600080fd5b610e6782612828565b7fff00000000000000000000000000000000000000000000000000000000000000881681526000602060e08184015261296f60e084018a6127b1565b8381036040850152612981818a6127b1565b6060850189905273ffffffffffffffffffffffffffffffffffffffff8816608086015260a0850187905284810360c0860152855180825283870192509083019060005b818110156129e0578351835292840192918401916001016129c4565b50909c9b505050505050505050505050565b803560ff8116811461284c57600080fd5b60008060008060008060c08789031215612a1c57600080fd5b612a2587612828565b95506020870135945060408701359350612a41606088016129f2565b92506080870135915060a087013590509295509295509295565b600080600080600080600060e0888a031215612a7657600080fd5b612a7f88612828565b9650612a8d60208901612828565b95506040880135945060608801359350612aa9608089016129f2565b925060a0880135915060c0880135905092959891949750929550565b60008060408385031215612ad857600080fd5b612ae183612828565b9150612aef60208401612828565b90509250929050565b60008060408385031215612b0b57600080fd5b612b1483612828565b9150602083013563ffffffff811681146128b857600080fd5b600181811c90821680612b4157607f821691505b602082108103612b7a577f4e487b7100000000000000000000000000000000000000000000000000000000600052602260045260246000fd5b50919050565b7f4e487b7100000000000000000000000000000000000000000000000000000000600052601160045260246000fd5b8082018082111561072457610724612b80565b808202811582820484141761072457610724612b80565b7f4e487b7100000000000000000000000000000000000000000000000000000000600052601260045260246000fd5b600082612c3e577f4e487b7100000000000000000000000000000000000000000000000000000000600052601260045260246000fd5b500490565b79ffffffffffffffffffffffffffffffffffffffffffffffffffff818116838216019080821115612c7657612c76612b80565b5092915050565b79ffffffffffffffffffffffffffffffffffffffffffffffffffff828116828216039080821115612c7657612c76612b80565b8181038181111561072457610724612b80565b7f4e487b7100000000000000000000000000000000000000000000000000000000600052602160045260246000fd5b7f4e487b7100000000000000000000000000000000000000000000000000000000600052603260045260246000fdfea2646970667358221220f53acd3f68209e36ced5c3e2ed5b0c0235bdf296e90cd985c8a1e9a3819ed0d064736f6c63430008140033dec2bacdd2f05b59de34da9b523dff8be42e5e38e818c82fdb0bae774387a724",
  "linkReferences": {},
  "deployedLinkReferences": {}
}